:10088C0020400800000000000000000000000000F4
:10089C00000000007C1010107C0000385454340010
:1008AC00007C04007C04003844443800007A0000CA
:1008BC00000000000000000000000000000000002C
:0308CC0000000029
:1008D000E4F548F549F54A120974E4F548E5482578
:1008E000492408F8E6FD7C00AF4812093D0548E5BB
:1008F00048C3940840E7054AE54AD3940A4005E412
:10090000F54A0549E549D3942840CFE4F54980CA22
:10095F00EF1FAC0670011E4C600A7D027CEFDCFEBF
:04096F00DDFC80EC3F
:010973002261
:02091000AD0731
:10091200E4FB74807E00A803088006CEA2E713CE13
:1009220013D8F8FFEDF582EF558224FF92B4D2B6C8
:0A093200C2B60BBB08DCD2B5C2B59B
:01093C002298
:05097400C2B6C2B5226D
:10093D00AA07AF05120910AF027480A8070880023C
:10094D00C313D8FCF4F5807F017E0012095F75801A
:02095D00FF2277
:03000000020800F3
:0C080000787FE4F6D8FD75814A020847B5
:10080C000208D0E493A3F8E493A34003F68001F22A
:10081C0008DFF48029E493A3F85407240CC8C333ED
:10082C00C4540F4420C8834004F456800146F6DFBC
:10083C00E4800B010204081020408090088CE47EB8
:10084C00019360BCA3FF543F30E509541FFEE493B1
:10085C00A360010ECF54C025E060A840B8E493A378
:10086C00FAE493A3F8E493A3C8C582C8CAC583CAA3
:10087C00F0A3C8C582C8CAC583CADFE9DEE780BE5B
:0108CF000028
:00000001FF
