:100CCB0070617373776F7264004F4B004552520023
:040CFE0002110000DF
:10098900120CB77BFF7A0C79CB7D017F01120C2BFE
:100999001208008F13E51360F7C3E5129404E511FB
:1009A9009400503EE513940A5038E51375F00A8413
:1009B900AFF07514008F15AE16AF177C007D0A12C3
:1009C9000A5AE5152FF517E5143EF5160512E51235
:1009D90070020511750C04AB17AA167D017F02126E
:1009E9000C6CE513640B7028E517B4D20DE516B449
:1009F90004087BFF7A0C79D480067BFF7A0C79D7BF
:100A09007D0A7F01120C2BE4F516F517F511F51285
:100A1900E513640C6003020999F516F517F511F54C
:040A29001202099913
:040C8900EF4E6013B7
:100C8D00750902750AEFD50AFDD509FAEF1F70EC4B
:010C9D001E38
:030C9E0080E922C8
:060CDB00C2A58F80D2A724
:080CE1007F027EEFDEFEDFFC66
:010CE90022E8
:0A0CEA00C2A6120CDBC2A7020CE147
:100C4E00CFCDCFCECCCE120A6C7C007D0A120A6CB0
:040C5E00ED2430FF52
:0A0C6200D2A6120CDBC2A7020CE1BF
:100CA100AE07BE0104ED148006BE0209ED243F44E7
:060CB10080FF120CEA2294
:100CB7007F38120CEA7F0C120CEA7F06120CEA7FCF
:040CC70001020CEA30
:0A0CF400AC03120CA1AF04020C6265
:060C2B008B088A09890A0A
:100C3100120CA1E4FDAB08AA09A90A8D82758300F3
:0C0C4100120A2DFF6006120C620D80E903
:010C4D002284
:0C0BF8007F0AEA24FFFDE434FFFC7E00CD
:080C04008E0D8F0E8C0F8D1078
:100C0C007F017E00E4FBEBC39510E50F6480F87464
:0E0C1C008098500AAC0DAD0E120A5A0B80E8FB
:010C2A0022A7
:040C6C008A0A8B0B5A
:100C7000120CA1AA0CEAD39400400D120BF8AC0A96
:080C8000AD0B120C4E1A80EDC1
:010C88002249
:100B4D00120CA1C3EA64809480400B7F2B120C62BF
:100B5D008A1D8B1E800E7F2D120C62C3E49BF51E29
:100B6D00E49AF51DAA1CEAD39400400D120BF8ACC3
:090B7D001DAD1E120C4E1A80ED94
:010B8600224C
:040B87008A218B2212
:100B8B00120CA1AA23EAD3940040297F10120BFA6E
:100B9B00AC21AD22CFCDCFCECCCE120A6CEF540F01
:100BAB00FEC3940AEE5004243080022437FF120C4B
:040BBB00621A80D169
:010BBF002213
:040BC0008A268B27CF
:100BC400120CA1AA28EAD394004028EA24FFFDE4E9
:100BD40034FFFC7F027E00120C04AC26AD27CFCD7F
:100BE400CFCECCCE120A6CEF54012430FF120C622B
:030BF4001A80D292
:010BF70022DB
:10080000E4F5087590FFC2932097137F14FE120C35
:10081000893097FD7F147E00120C8975080120969F
:10082000147F147E00120C893096FD7F147E001216
:100830000C897508052095147F147E00120C8930F0
:1008400095FD7F147E00120C897508092094147F91
:10085000147E00120C893094FD7F147E00120C89E6
:1008600075080D7590FFC2922097147F147E0012B8
:100870000C893097FD7F147E00120C8975080220C8
:1008800096147F147E00120C893096FD7F147E0032
:10089000120C897508062095147F147E00120C89AD
:1008A0003095FD7F147E00120C8975080A2094147F
:1008B0007F147E00120C893094FD7F147E00120C90
:1008C0008975080E7590FFC2912097147F147E00E1
:1008D000120C893097FD7F147E00120C8975080375
:1008E0002096147F147E00120C893096FD7F147EB2
:1008F00000120C897508072095147F147E00120CD5
:10090000893095FD7F147E00120C8975080B2094A8
:10091000147F147E00120C893094FD7F147E001227
:100920000C8975080F7590FFC2902097147F147E74
:1009300000120C893097FD7F147E00120C89750817
:10094000042096147F147E00120C893096FD7F14CB
:100950007E00120C897508082095147F147E001201
:100960000C893095FD7F147E00120C8975080C20CF
:1009700094147F147E00120C893094FD7F147E0045
:08098000120C89750810AF0884
:01098800224C
:03000000020AC130
:0C0AC100787FE4F6D8FD758128020B0850
:100A2D00BB010CE58229F582E5833AF583E022507E
:100A3D0006E92582F8E622BBFE06E92582F8E222C8
:0D0A4D00E58229F582E5833AF583E49322E2
:100A5A00EF8DF0A4A8F0CF8CF0A428CE8DF0A42EB0
:020A6A00FE226A
:100A6C00BC000BBE0029EF8DF084FFADF022E4CC6E
:100A7C00F875F008EF2FFFEE33FEEC33FCEE9DEC37
:100A8C00984005FCEE9DFE0FD5F0E9E4CEFD22ED7D
:100A9C00F8F5F0EE8420D21CFEADF075F008EF2FC7
:100AAC00FFED33FD4007985006D5F0F222C398FDB8
:050ABC000FD5F0EA2255
:100ACD00020989E493A3F8E493A34003F68001F2AD
:100ADD0008DFF48029E493A3F85407240CC8C3332A
:100AED00C4540F4420C8834004F456800146F6DFF9
:100AFD00E4800B0102040810204080900CFEE47E7F
:100B0D00019360BCA3FF543F30E509541FFEE493ED
:100B1D00A360010ECF54C025E060A840B8E493A3B4
:100B2D00FAE493A3F8E493A3C8C582C8CAC583CADF
:100B3D00F0A3C8C582C8CAC583CADFE9DEE780BE97
:010D020000F0
:00000001FF
