:100800001208BD7D3C7C00E4FF12087A7D427C002A
:100810007F0112087A7DA97C007F0212087A7D850B
:100820007C007F0312087A7D857C007F0412087AA1
:100830007DA97C007F0512087A7D427C007F06122C
:0D084000087A7D3C7C007F0712087A80B6A4
:10089C00EF1FAC0670011E4C600A7D027CEFDCFE83
:0408AC00DDFC80EC03
:0108B0002225
:02084D00AD07F5
:10084F00E4FB74807E00A803088006CEA2E713CED7
:10085F0013D8F8FFEDF582EF558224FF92B4D2B68C
:0A086F00C2B60BBB08DCD2B5C2B55F
:01087900225C
:0508BD00C2B6C2B52225
:10087A00AA07AF0512084DAF027480A807088002C4
:10088A00C313D8FCF4F5807F017E0012089C7580A2
:02089A00FF223B
:030000000208B142
:0C08B100787FE4F6D8FD7581070208008E
:00000001FF
