:07098E00010B00020900004B
:10093F0075A0FE12097712088C8F08E50860F7B4CE
:10094F0001F4050BE50BC3940240EBE4F50B80E6D5
:03000B000208EBFD
:1008EB00C0E0C0D075D000C000C007758A18758CE9
:1008FB00FC050AE50A70020509C394F4E5099401A5
:10090B004029750900750A00E50B700DAFA0780141
:10091B00EF08800123D8FDF5A0E50BB4010DAFA0C6
:10092B007801EF08800103D8FDF5A0D007D000D0E7
:04093B00D0D0E03206
:100977005389F0438901758A18758CFCC28DD28C16
:07098700D2A9D2AFC2B922D0
:10088C0020B1147F147E0012095F30B1FD7F147EFD
:10089C000012095F750C0120B0147F147E00120940
:1008AC005F30B1FD7F147E0012095F750C0220B21F
:1008BC00147F147E0012095F30B1FD7F147E00128C
:1008CC00095F750C0320B3147F147E0012095F308E
:0E08DC00B1FD7F147E0012095F750C04AF0C95
:0108EA0022EB
:04095F00EF4E6013E4
:10096300750D02750EEFD50EFDD50DFAEF1F70EC68
:010973001E65
:0309740080E922F5
:03000000020800F3
:0C080000787FE4F6D8FD75810E020847F1
:10080C0002093FE493A3F8E493A34003F68001F2BA
:10081C0008DFF48029E493A3F85407240CC8C333ED
:10082C00C4540F4420C8834004F456800146F6DFBC
:10083C00E4800B010204081020408090098EE47EB5
:10084C00019360BCA3FF543F30E509541FFEE493B1
:10085C00A360010ECF54C025E060A840B8E493A378
:10086C00FAE493A3F8E493A3C8C582C8CAC583CAA3
:10087C00F0A3C8C582C8CAC583CADFE9DEE780BE5B
:010995000061
:00000001FF
