:050AC000120A1580FE82
:030023000208943C
:10089400C0E0C0F0C083C082C0D075D000C000C02A
:1008A40001C002C003C004C005C006C00730980AD6
:1008B4008599A0AF99120AB8C298D007D006D0057E
:1008C400D004D003D002D001D000D0D0D082D083C5
:0508D400D0F0D0E0327D
:040A3000EF4E601312
:100A34007525027526EFD526FDD525FAEF1F70EC36
:010A44001E93
:030A450080E92223
:060A8900C2A58F80D2A778
:080A8F007F027EEFDEFEDFFCBA
:010A9700223C
:0A0AA400C2A6120A89C2A7020A8F37
:1009DA00CFCDCFCECCCE12083F7C007D0A12083F85
:0409EA00ED2430FFC9
:0A09EE00D2A6120A89C2A7020A8FDE
:100A5F00AE07BE0104ED148006BE0209ED243F442B
:060A6F0080FF120AA42220
:100A75007F38120AA47F0C120AA47F06120AA47FEB
:040A850001020AA4BC
:0A0AAE00AC03120A5FAF040209EE68
:0609B7008B228A23892433
:1009BD00120A5FE4FDAB22AA23A9248D8275830060
:0C09CD00120800FF60061209EE0D80E920
:0109D90022FB
:0C0984007F0AEA24FFFDE434FFFC7E0043
:080990008E1E8F1F8C208D21AB
:100998007F017E00E4FBEBC39521E5206480F874B9
:0E09A8008098500AAC1EAD1F12082D0B80E87F
:0109B600221E
:0409F8008A118B12C3
:1009FC00120A5FAA13EAD39400400D120984AC11B9
:080A0C00AD121209DA1A80EDA7
:010A140022BF
:1008D900120A5FC3EA64809480400B7F2B1209EEF1
:1008E9008A0D8B0E800E7F2D1209EEC3E49BF50E47
:1008F900E49AF50DAA0CEAD39400400D120984ACD0
:090909000DAD0E1209DA1A80EDA1
:0109120022C2
:040913008A168B179E
:10091700120A5FAA18EAD3940040297F10120986A9
:10092700AC16AD17CFCDCFCECCCE12083FEF540FBC
:10093700FEC3940AEE5004243080022437FF1209C4
:04094700EE1A80D153
:01094B002289
:04094C008A1B8B1C5B
:10095000120A5FAA1DEAD394004028EA24FFFDE4AE
:1009600034FFFC7F027E00120990AC1BAD1CCFCD82
:10097000CFCECCCE12083FEF54012430FF1209EE47
:030980001A80D208
:010983002251
:100A48005389F0438901758A18758CFCC28DD28C44
:070A5800D2A9D2AFC2B922FE
:100A150043878075985053890F438920758BF475EA
:0B0A25008DF4C2ABD28ED2AFD2AC2257
:080AB8008F993099FDC29922CB
:03000000020A9859
:0C0A9800787FE4F6D8FD758127020AC0C3
:10080000BB010CE58229F582E5833AF583E02250AD
:1008100006E92582F8E622BBFE06E92582F8E222F7
:0D082000E58229F582E5833AF583E4932211
:10082D00EF8DF0A4A8F0CF8CF0A428CE8DF0A42EDF
:02083D00FE2299
:10083F00BC000BBE0029EF8DF084FFADF022E4CC9D
:10084F00F875F008EF2FFFEE33FEEC33FCEE9DEC66
:10085F00984005FCEE9DFE0FD5F0E9E4CEFD22EDAC
:10086F00F8F5F0EE8420D21CFEADF075F008EF2FF6
:10087F00FFED33FD4007985006D5F0F222C398FDE7
:05088F000FD5F0EA2284
:00000001FF
