:100800000004000400041602180219061802190454
:100810001D04180C11021102160614021604190404
:10082000140C11041206110212041904110800021A
:1008300019021902190218061302130418041808E1
:100840000004160218021906180219041D04180CD7
:10085000110211021606140216041904140C0F02D8
:10086000110212041902180419061B021B021D02B0
:10087000190A190218021602160218041504160C99
:1008800019021B021D061B021D0420041B0C14026E
:1008900014021906180219041D041D10160218026C
:1008A000190418041B021B021906140A1E041D0455
:1008B0001D0419041D0C1D042208200420041D021F
:1008C0001B021908000219021B0419021B021B0457
:1008D00020041D0C1D04220820081D021B021908FB
:1008E000000219021B0419021B061804160C00044E
:0108F000FF08
:10097D00010900010800204A0A0000F88CF8F3F97B
:10098D005BF9B8FA15FA67FAB9FB04FB4BFB90FB60
:10099D00CFFC10FC44FC79FCACFCDCFD09FD34FD06
:1009AD005CFD82FDA6FDC8FDE8FE06FE22FE3DFEB5
:1009BD0056FE6EFE85FE9AFEAEFEC1FED3FEE4FE31
:0309CD00F4FF0331
:100A0500120A4EE50890080093FFF460208F09054F
:100A150008E5089375F07DA4FFAEF0120A360508C7
:100A2500C28C7F057E00120A36D28C80D6C28C809D
:010A3500FEC2
:03000B000209D116
:1009D100C0E0C0D075D000C000C006E50925E02404
:1009E1000AF8E6FE08E64E6012E50925E0240AF859
:1009F100E6FE08E6F58AEEF58CB295D006D000D079
:040A0100D0D0E0323F
:100A4E005389F0438901758A18758CFCC28DD28C3E
:070A5E00D2A9D2AFC2B922F8
:040A3600EF4E60130C
:100A3A007554027555EFD555FDD554FAEF1F70EC74
:010A4A001E8D
:030A4B0080E9221D
:030000000208F102
:0C08F100787FE4F6D8FD758155020938C7
:1008FD00020A05E493A3F8E493A34003F68001F202
:10090D0008DFF48029E493A3F85407240CC8C333FB
:10091D00C4540F4420C8834004F456800146F6DFCA
:10092D00E4800B010204081020408090097DE47ED4
:10093D00019360BCA3FF543F30E509541FFEE493BF
:10094D00A360010ECF54C025E060A840B8E493A386
:10095D00FAE493A3F8E493A3C8C582C8CAC583CAB1
:10096D00F0A3C8C582C8CAC583CADFE9DEE780BE69
:0109D0000026
:00000001FF
