:0A0D6D002D20202D003A20203A002E
:100A9700120D4A120D951208007BFF7A0D796D7DB4
:100AA700037F01120CBE7BFF7A0D79727D037F02F3
:100AB700120CBE12097EE518FB7A00750C027D0147
:100AC7007F01120CFFE519FB7A00750C027D047F8C
:100AD70001120CFFE51AFB7A00750C027D077F01F6
:100AE700120CFFE51BFB7A00750C027D017F0212D9
:100AF7000CFFE51CFB7A00750C027D047F02120CCB
:100B0700FFE51DFB7A00750C027D077F02120CFFC3
:020B170080A1BB
:060D5E00C2A58F80D2A7A0
:080D64007F027EEFDEFEDFFCE2
:010D6C002264
:0A0D7700C2A6120D5EC2A7020D64B1
:100CE100CFCDCFCECCCE1209297C007D0A120929A5
:040CF100ED2430FFBF
:0A0CF500D2A6120D5EC2A7020D6424
:100D3400AE07BE0104ED148006BE0209ED243F4453
:060D440080FF120D772272
:100D4A007F38120D777F0C120D777F06120D777F91
:040D5A0001020D770E
:0A0D8100AC03120D34AF04020CF5B0
:060CBE008B088A09890A77
:100CC400120D34E4FDAB08AA09A90A8D82758300CC
:0C0CD4001208EAFF6006120CF50D80E922
:010CE00022F1
:0C0C8B007F0AEA24FFFDE434FFFC7E0039
:080C97008E0D8F0E8C0F8D10E5
:100C9F007F017E00E4FBEBC39510E50F6480F874D1
:0E0CAF008098500AAC0DAD0E1209170B80E8AC
:010CBD002214
:040CFF008A0A8B0BC7
:100D0300120D34AA0CEAD39400400D120C8BAC0ADA
:080D1300AD0B120CE11A80ED9A
:010D1B0022B5
:100BE000120D34C3EA64809480400B7F2B120CF505
:100BF0008A168B17800E7F2D120CF5C3E49BF51718
:100C0000E49AF516AA15EAD39400400D120C8BACA9
:090C100016AD17120CE11A80ED7B
:010C190022B8
:040C1A008A218B227E
:100C1E00120D34AA23EAD3940040297F10120C8DB2
:100C2E00AC21AD22CFCDCFCECCCE120929EF540FB1
:100C3E00FEC3940AEE5004243080022437FF120CB7
:040C4E00F51A80D142
:010C5200227F
:040C53008A268B273B
:100C5700120D34AA28EAD394004028EA24FFFDE4C1
:100C670034FFFC7F027E00120C97AC26AD27CFCD58
:100C7700CFCECCCE120929EF54012430FF120CF548
:030C87001A80D2FE
:010C8A002247
:090D8B00071816050F17141407D0
:050D9500C2B5C2B62248
:060B830025F0FDEC3EFC34
:060B89008C088D09AB078A
:100B8F00E4FDD2B574017E00A805088005C333CEFD
:100B9F0033CED8F9FFEBF582EF558224FF92B4D212
:100BAF00B6C2B60DBD08DDE4FD74017E00A80508D0
:100BBF008005C333CE33CED8F9FFE5085EFEE509D5
:100BCF005F4E24FF92B4D2B6C2B60DBD08DBC2B5DC
:010BDF0022F3
:020B19008F0843
:100B1B00E4F509F50A430801D2B5F50974017E0025
:100B2B00A809088005C333CE33CED8F9FFEF55089B
:100B3B0024FF92B4C2B67F017E00120D1CD2B60503
:100B4B0009E509C3940840D4E4F509D2B67F017EC8
:100B5B0000120D1CC2B630B40FAF097401A8070800
:100B6B008002C333D8FC420A0509E509C394084047
:070B7B00DAC2B5C2B4AF0AF3
:010B82002250
:10080000E4FDFC7F8E120B89E51875F00A8475F003
:1008100010A4FFAEF0E51875F00A84EF7F8C120B80
:1008200083E51975F00A8475F010A4FFAEF0E519A0
:1008300075F00A847C00EF7F88120B83E51A75F04F
:100840000A8475F010A4FFAEF0E51A75F00A847CF6
:1008500000EF25F0FDEC3EFC7F86120B89E51B7551
:10086000F00A8475F010A4FFAEF0E51B75F00A8461
:100870007C00EF25F0FDEC3EFC7F84120B89E51C2B
:1008800075F00A8475F010A4FFAEF0E51C75F00A4F
:10089000847C00EF25F0FDEC3EFC7F82120B89E5A5
:1008A0001D75F00A8475F010A4FFAEF0E51D75F01B
:1008B0000A847C00EF25F0FDEC3EFC7F80120B8962
:1008C000E51E75F00A8475F010A4FFAEF0E51E7504
:1008D000F00A847C00EF25F0FDEC3EFC7F8A120BD1
:0A08E000897D807C007F8E020B8969
:10097E007F8C120B19EFC4540F75F00AA4FEEF54BE
:10098E000F2EF5187F88120B19EFC4540F75F00A4D
:10099E00A4FEEF540F2EF5197F86120B19EFC454D7
:1009AE000F75F00AA4FEEF540F2EF51A7F84120B6A
:1009BE0019EFC4540F75F00AA4FEEF540F2EF51B59
:1009CE007F82120B19EFC4540F75F00AA4FEEF5478
:1009DE000F2EF51C7F80120B19EFC4540F75F00A01
:1009EE00A4FEEF540F2EF51D7F8A120B19EFC4547F
:0C09FE000F75F00AA4FEEF540F2EF51E3A
:010A0A0022C9
:040D1C00EF4E601323
:100D2000750B02750CEFD50CFDD50BFAEF1F70ECAF
:010D30001EA4
:030D310080E92234
:03000000020A0BE6
:0C0A0B00787FE4F6D8FD758128020A52BD
:1008EA00BB010CE58229F582E5833AF583E02250C3
:1008FA0006E92582F8E622BBFE06E92582F8E2220D
:0D090A00E58229F582E5833AF583E4932226
:10091700EF8DF0A4A8F0CF8CF0A428CE8DF0A42EF4
:02092700FE22AE
:10092900BC000BBE0029EF8DF084FFADF022E4CCB2
:10093900F875F008EF2FFFEE33FEEC33FCEE9DEC7B
:10094900984005FCEE9DFE0FD5F0E9E4CEFD22EDC1
:10095900F8F5F0EE8420D21CFEADF075F008EF2F0B
:10096900FFED33FD4007985006D5F0F222C398FDFC
:050979000FD5F0EA2299
:100A1700020A97E493A3F8E493A34003F68001F254
:100A270008DFF48029E493A3F85407240CC8C333E0
:100A3700C4540F4420C8834004F456800146F6DFAF
:100A4700E4800B0102040810204080900D8BE47EA7
:100A5700019360BCA3FF543F30E509541FFEE493A4
:100A6700A360010ECF54C025E060A840B8E493A36B
:100A7700FAE493A3F8E493A3C8C582C8CAC583CA96
:100A8700F0A3C8C582C8CAC583CADFE9DEE780BE4E
:010D9400005E
:00000001FF
