:100A40001209FFAF27120A8205277FE87E031209E9
:030A5000D080F063
:0409D000EF4E601373
:1009D4007525027526EFD526FDD525FAEF1F70EC97
:0109E4001EF4
:0309E50080E92284
:060A5300C2A58F80D2A7AE
:080A59007F027EEFDEFEDFFCF0
:010A61002272
:0A0A6E00C2A6120A53C2A7020A59D9
:10099500CFCDCFCECCCE12083F7C007D0A12083FCA
:0409A500ED2430FF0E
:0A09A900D2A6120A53C2A7020A598F
:100A1600AE07BE0104ED148006BE0209ED243F4474
:060A260080FF120A6E229F
:100A2C007F38120A6E7F0C120A6E7F06120A6E7FD6
:040A3C0001020A6E3B
:0A0A7800AC03120A16AF040209A92C
:060972008B228A23892478
:10097800120A16E4FDAB22AA23A9248D82758300EE
:0C098800120800FF60061209A90D80E9AA
:010994002240
:0C093F007F0AEA24FFFDE434FFFC7E0088
:08094B008E1E8F1F8C208D21F0
:100953007F017E00E4FBEBC39521E5206480F874FE
:0E0963008098500AAC1EAD1F12082D0B80E8C4
:010971002263
:0409B3008A118B1208
:1009B700120A16AA13EAD39400400D12093FAC118C
:0809C700AD121209951A80ED32
:0109CF002205
:10089400120A16C3EA64809480400B7F2B1209A9C4
:1008A4008A0D8B0E800E7F2D1209A9C3E49BF50ED1
:1008B400E49AF50DAA0CEAD39400400D12093FAC5A
:0908C4000DAD0E1209951A80ED2C
:0108CD002208
:0408CE008A168B17E4
:1008D200120A16AA18EAD3940040297F101209417D
:1008E200AC16AD17CFCDCFCECCCE12083FEF540F02
:1008F200FEC3940AEE5004243080022437FF12090A
:04090200A91A80D1DD
:0109060022CE
:040907008A1B8B1CA0
:10090B00120A16AA1DEAD394004028EA24FFFDE43C
:10091B0034FFFC7F027E0012094BAC1BAD1CCFCD0C
:10092B00CFCECCCE12083FEF54012430FF1209A9D1
:03093B001A80D24D
:01093E002296
:1009E8005389F0438901758A18758CFCC28DD28CA5
:0709F800D2A9D2AFC2B9225F
:1009FF0043878075984053890F438920758BF47511
:070A0F008DF4C2ABD28E2270
:080A82008F993099FDC2992201
:03000000020A628F
:0C0A6200787FE4F6D8FD758127020A4079
:10080000BB010CE58229F582E5833AF583E02250AD
:1008100006E92582F8E622BBFE06E92582F8E222F7
:0D082000E58229F582E5833AF583E4932211
:10082D00EF8DF0A4A8F0CF8CF0A428CE8DF0A42EDF
:02083D00FE2299
:10083F00BC000BBE0029EF8DF084FFADF022E4CC9D
:10084F00F875F008EF2FFFEE33FEEC33FCEE9DEC66
:10085F00984005FCEE9DFE0FD5F0E9E4CEFD22EDAC
:10086F00F8F5F0EE8420D21CFEADF075F008EF2FF6
:10087F00FFED33FD4007985006D5F0F222C398FDE7
:05088F000FD5F0EA2284
:00000001FF
