:080AF500434C4F434B003A0053
:10089400120AB2120A857BFF7A0A79F57D017F017B
:1008A400120A0F7BFF7A0A79FB7D037F02120A0F7B
:1008B4007BFF7A0A79FB7D067F02120A0F750C0210
:1008C400AB16AA157D017F02120A50750C02AB18F3
:1008D400AA177D047F02120A50750C02AB14AA13E6
:0908E4007D077F02120A5080D446
:03000B000208EDFB
:0408ED00C0E0C0D0D7
:1008F100758A18758CFC0512E51270020511C394F6
:10090100E8E511940340247511007512000514E502
:100911001470020513943CE5139400400E75130006
:0B0921007514000518E518700205179A
:05092C00D0D0D0E03244
:040A6D00EF4E6013D5
:100A7100752A02752BEFD52BFDD52AFAEF1F70ECE5
:010A81001E56
:030A820080E922E6
:060AC600C2A58F80D2A73B
:080ACC007F027EEFDEFEDFFC7D
:010AD40022FF
:0A0AE100C2A6120AC6C2A7020ACC80
:100A3200CFCDCFCECCCE12083F7C007D0A12083F2C
:040A4200ED2430FF70
:0A0A4600D2A6120AC6C2A7020ACC0B
:100A9C00AE07BE0104ED148006BE0209ED243F44EE
:060AAC0080FF120AE122A6
:100AB2007F38120AE17F0C120AE17F06120AE17FF7
:040AC20001020AE142
:0A0AEB00AC03120A9CAF04020A4695
:060A0F008B088A09890A28
:100A1500120A9CE4FDAB08AA09A90A8D8275830018
:0C0A2500120800FF6006120A460D80E96E
:010A310022A2
:0C09DC007F0AEA24FFFDE434FFFC7E00EB
:0809E8008E0D8F0E8C0F8D1097
:1009F0007F017E00E4FBEBC39510E50F6480F87483
:0E0A00008098500AAC0DAD0E12082D0B80E848
:010A0E0022C5
:040A50008A0A8B0B78
:100A5400120A9CAA0CEAD39400400D1209DCAC0AD9
:080A6400AD0B120A321A80EDFD
:010A6C002267
:10093100120A9CC3EA64809480400B7F2B120A4602
:100941008A1E8B1F800E7F2D120A46C3E49BF51F62
:10095100E49AF51EAA1DEAD39400400D1209DCACFD
:090961001EAD1F120A321A80EDCE
:01096A00226A
:04096B008A228B232E
:10096F00120A9CAA24EAD3940040297F101209DEB0
:10097F00AC22AD23CFCDCFCECCCE12083FEF540F4C
:10098F00FEC3940AEE5004243080022437FF120A6B
:04099F00461A80D1A3
:0109A3002231
:0409A4008A278B28EB
:1009A800120A9CAA29EAD394004028EA24FFFDE40D
:1009B80034FFFC7F027E001209E8AC27AD28CFCDBA
:1009C800CFCECCCE12083FEF54012430FF120A4696
:0309D8001A80D2B0
:0109DB0022F9
:100A85005389F0438901758A18758CFCC28DD28C07
:070A9500D2A9D2AFC2B922C1
:03000000020AD51C
:0C0AD500787FE4F6D8FD75812B020894B0
:10080000BB010CE58229F582E5833AF583E02250AD
:1008100006E92582F8E622BBFE06E92582F8E222F7
:0D082000E58229F582E5833AF583E4932211
:10082D00EF8DF0A4A8F0CF8CF0A428CE8DF0A42EDF
:02083D00FE2299
:10083F00BC000BBE0029EF8DF084FFADF022E4CC9D
:10084F00F875F008EF2FFFEE33FEEC33FCEE9DEC66
:10085F00984005FCEE9DFE0FD5F0E9E4CEFD22EDAC
:10086F00F8F5F0EE8420D21CFEADF075F008EF2FF6
:10087F00FFED33FD4007985006D5F0F222C398FDE7
:05088F000FD5F0EA2284
:00000001FF
