:040060007F147E008B
:04006400EF4E6013E8
:100068007508027509EFD509FDD508FAEF1F70EC80
:010078001E69
:0300790080E922F9
:10000300E4FDFC75A0FE20B12812006030B1FD12A2
:100013000060ED64084C7004FCFD80050DBD00011B
:100023000CAF057401A807088002C333D8FCF4F5AC
:10003300A020B0D212006030B0FD120060ED4C7011
:1000430005FC7D078005ED1D70011CAF057401A83B
:0D00530007088002C333D8FCF4F5A080A993
:0300000002007C7F
:0C007C00787FE4F6D8FD758109020003CE
:00000001FF
